{
  "_format": "hh-sol-artifact-1",
  "contractName": "SnortLogger",
  "sourceName": "contracts/SnortLogger.sol",
  "abi": [
    {
      "inputs": [],
      "stateMutability": "nonpayable",
      "type": "constructor"
    },
    {
      "anonymous": false,
      "inputs": [
        {
          "indexed": false,
          "internalType": "uint256",
          "name": "id",
          "type": "uint256"
        },
        {
          "indexed": false,
          "internalType": "address",
          "name": "sender",
          "type": "address"
        },
        {
          "indexed": false,
          "internalType": "string",
          "name": "hash",
          "type": "string"
        }
      ],
      "name": "AlertLogged",
      "type": "event"
    },
    {
      "inputs": [
        {
          "internalType": "uint256",
          "name": "",
          "type": "uint256"
        }
      ],
      "name": "alerts",
      "outputs": [
        {
          "internalType": "address",
          "name": "sender",
          "type": "address"
        },
        {
          "internalType": "string",
          "name": "hash",
          "type": "string"
        }
      ],
      "stateMutability": "view",
      "type": "function"
    },
    {
      "inputs": [
        {
          "internalType": "uint256",
          "name": "id",
          "type": "uint256"
        }
      ],
      "name": "getAlert",
      "outputs": [
        {
          "internalType": "address",
          "name": "",
          "type": "address"
        },
        {
          "internalType": "string",
          "name": "",
          "type": "string"
        }
      ],
      "stateMutability": "view",
      "type": "function"
    },
    {
      "inputs": [],
      "name": "getAllIds",
      "outputs": [
        {
          "internalType": "uint256[]",
          "name": "",
          "type": "uint256[]"
        }
      ],
      "stateMutability": "view",
      "type": "function"
    },
    {
      "inputs": [
        {
          "internalType": "uint256",
          "name": "",
          "type": "uint256"
        }
      ],
      "name": "ids",
      "outputs": [
        {
          "internalType": "uint256",
          "name": "",
          "type": "uint256"
        }
      ],
      "stateMutability": "view",
      "type": "function"
    },
    {
      "inputs": [
        {
          "internalType": "uint256",
          "name": "id",
          "type": "uint256"
        },
        {
          "internalType": "string",
          "name": "hash",
          "type": "string"
        }
      ],
      "name": "logAlert",
      "outputs": [],
      "stateMutability": "nonpayable",
      "type": "function"
    },
    {
      "inputs": [],
      "name": "owner",
      "outputs": [
        {
          "internalType": "address",
          "name": "",
          "type": "address"
        }
      ],
      "stateMutability": "view",
      "type": "function"
    }
  ],
  "bytecode": "0x608060405234801561001057600080fd5b5033600260006101000a81548173ffffffffffffffffffffffffffffffffffffffff021916908373ffffffffffffffffffffffffffffffffffffffff160217905550610e57806100616000396000f3fe608060405234801561001057600080fd5b50600436106100625760003560e01c8063171d073a1461006757806375725fc61461009857806385081886146100b45780638da5cb5b146100e5578063aaa44e5c14610103578063fac333ac14610121575b600080fd5b610081600480360381019061007c9190610623565b610151565b60405161008f929190610721565b60405180910390f35b6100b260048036038101906100ad9190610886565b61021d565b005b6100ce60048036038101906100c99190610623565b610416565b6040516100dc929190610721565b60405180910390f35b6100ed610537565b6040516100fa91906108e2565b60405180910390f35b61010b61055d565b60405161011891906109bb565b60405180910390f35b61013b60048036038101906101369190610623565b6105b5565b60405161014891906109ec565b60405180910390f35b60006020528060005260406000206000915090508060000160009054906101000a900473ffffffffffffffffffffffffffffffffffffffff169080600101805461019a90610a36565b80601f01602080910402602001604051908101604052809291908181526020018280546101c690610a36565b80156102135780601f106101e857610100808354040283529160200191610213565b820191906000526020600020905b8154815290600101906020018083116101f657829003601f168201915b5050505050905082565b600260009054906101000a900473ffffffffffffffffffffffffffffffffffffffff1673ffffffffffffffffffffffffffffffffffffffff163373ffffffffffffffffffffffffffffffffffffffff16146102ad576040517f08c379a00000000000000000000000000000000000000000000000000000000081526004016102a490610ad9565b60405180910390fd5b600080600084815260200190815260200160002060010180546102cf90610a36565b905014610311576040517f08c379a000000000000000000000000000000000000000000000000000000000815260040161030890610b45565b60405180910390fd5b60405180604001604052803373ffffffffffffffffffffffffffffffffffffffff1681526020018281525060008084815260200190815260200160002060008201518160000160006101000a81548173ffffffffffffffffffffffffffffffffffffffff021916908373ffffffffffffffffffffffffffffffffffffffff16021790555060208201518160010190816103aa9190610d11565b5090505060018290806001815401808255809150506001900390600052602060002001600090919091909150557f925bda36ee4169eebc888b3b593fb5f32760175c6c8e32040ff4cbd4a109a21282338360405161040a93929190610de3565b60405180910390a15050565b6000606060008060008581526020019081526020016000206040518060400160405290816000820160009054906101000a900473ffffffffffffffffffffffffffffffffffffffff1673ffffffffffffffffffffffffffffffffffffffff1673ffffffffffffffffffffffffffffffffffffffff16815260200160018201805461049f90610a36565b80601f01602080910402602001604051908101604052809291908181526020018280546104cb90610a36565b80156105185780601f106104ed57610100808354040283529160200191610518565b820191906000526020600020905b8154815290600101906020018083116104fb57829003601f168201915b5050505050815250509050806000015181602001519250925050915091565b600260009054906101000a900473ffffffffffffffffffffffffffffffffffffffff1681565b606060018054806020026020016040519081016040528092919081815260200182805480156105ab57602002820191906000526020600020905b815481526020019060010190808311610597575b5050505050905090565b600181815481106105c557600080fd5b906000526020600020016000915090505481565b6000604051905090565b600080fd5b600080fd5b6000819050919050565b610600816105ed565b811461060b57600080fd5b50565b60008135905061061d816105f7565b92915050565b600060208284031215610639576106386105e3565b5b60006106478482850161060e565b91505092915050565b600073ffffffffffffffffffffffffffffffffffffffff82169050919050565b600061067b82610650565b9050919050565b61068b81610670565b82525050565b600081519050919050565b600082825260208201905092915050565b60005b838110156106cb5780820151818401526020810190506106b0565b60008484015250505050565b6000601f19601f8301169050919050565b60006106f382610691565b6106fd818561069c565b935061070d8185602086016106ad565b610716816106d7565b840191505092915050565b60006040820190506107366000830185610682565b818103602083015261074881846106e8565b90509392505050565b600080fd5b600080fd5b7f4e487b7100000000000000000000000000000000000000000000000000000000600052604160045260246000fd5b610793826106d7565b810181811067ffffffffffffffff821117156107b2576107b161075b565b5b80604052505050565b60006107c56105d9565b90506107d1828261078a565b919050565b600067ffffffffffffffff8211156107f1576107f061075b565b5b6107fa826106d7565b9050602081019050919050565b82818337600083830152505050565b6000610829610824846107d6565b6107bb565b90508281526020810184848401111561084557610844610756565b5b610850848285610807565b509392505050565b600082601f83011261086d5761086c610751565b5b813561087d848260208601610816565b91505092915050565b6000806040838503121561089d5761089c6105e3565b5b60006108ab8582860161060e565b925050602083013567ffffffffffffffff8111156108cc576108cb6105e8565b5b6108d885828601610858565b9150509250929050565b60006020820190506108f76000830184610682565b92915050565b600081519050919050565b600082825260208201905092915050565b6000819050602082019050919050565b610932816105ed565b82525050565b60006109448383610929565b60208301905092915050565b6000602082019050919050565b6000610968826108fd565b6109728185610908565b935061097d83610919565b8060005b838110156109ae5781516109958882610938565b97506109a083610950565b925050600181019050610981565b5085935050505092915050565b600060208201905081810360008301526109d5818461095d565b905092915050565b6109e6816105ed565b82525050565b6000602082019050610a0160008301846109dd565b92915050565b7f4e487b7100000000000000000000000000000000000000000000000000000000600052602260045260246000fd5b60006002820490506001821680610a4e57607f821691505b602082108103610a6157610a60610a07565b5b50919050565b7f4f6e6c7920636f6e7472616374206f776e65722063616e206c6f6720616c657260008201527f7473000000000000000000000000000000000000000000000000000000000000602082015250565b6000610ac360228361069c565b9150610ace82610a67565b604082019050919050565b60006020820190508181036000830152610af281610ab6565b9050919050565b7f416c65727420494420616c7265616479206c6f67676564000000000000000000600082015250565b6000610b2f60178361069c565b9150610b3a82610af9565b602082019050919050565b60006020820190508181036000830152610b5e81610b22565b9050919050565b60008190508160005260206000209050919050565b60006020601f8301049050919050565b600082821b905092915050565b600060088302610bc77fffffffffffffffffffffffffffffffffffffffffffffffffffffffffffffffff82610b8a565b610bd18683610b8a565b95508019841693508086168417925050509392505050565b6000819050919050565b6000610c0e610c09610c04846105ed565b610be9565b6105ed565b9050919050565b6000819050919050565b610c2883610bf3565b610c3c610c3482610c15565b848454610b97565b825550505050565b600090565b610c51610c44565b610c5c818484610c1f565b505050565b5b81811015610c8057610c75600082610c49565b600181019050610c62565b5050565b601f821115610cc557610c9681610b65565b610c9f84610b7a565b81016020851015610cae578190505b610cc2610cba85610b7a565b830182610c61565b50505b505050565b600082821c905092915050565b6000610ce860001984600802610cca565b1980831691505092915050565b6000610d018383610cd7565b9150826002028217905092915050565b610d1a82610691565b67ffffffffffffffff811115610d3357610d3261075b565b5b610d3d8254610a36565b610d48828285610c84565b600060209050601f831160018114610d7b5760008415610d69578287015190505b610d738582610cf5565b865550610ddb565b601f198416610d8986610b65565b60005b82811015610db157848901518255600182019150602085019450602081019050610d8c565b86831015610dce5784890151610dca601f891682610cd7565b8355505b6001600288020188555050505b505050505050565b6000606082019050610df860008301866109dd565b610e056020830185610682565b8181036040830152610e1781846106e8565b905094935050505056fea26469706673582212207ae6058a6b6464f7d5a5b7b078f68955f3116d4888dabebfad15de5b67f7bd1c64736f6c63430008140033",
  "linkReferences": {},
  "deployedLinkReferences": {}
}