{
  "_format": "hh-sol-artifact-1",
  "contractName": "SnortLogger",
  "sourceName": "contracts/SnortLogger.sol",
  "abi": [
    {
      "inputs": [],
      "stateMutability": "nonpayable",
      "type": "constructor"
    },
    {
      "anonymous": false,
      "inputs": [
        {
          "indexed": true,
          "internalType": "address",
          "name": "sender",
          "type": "address"
        },
        {
          "indexed": false,
          "internalType": "string",
          "name": "message",
          "type": "string"
        },
        {
          "indexed": false,
          "internalType": "uint256",
          "name": "timestamp",
          "type": "uint256"
        }
      ],
      "name": "AlertLogged",
      "type": "event"
    },
    {
      "inputs": [
        {
          "internalType": "uint256",
          "name": "",
          "type": "uint256"
        }
      ],
      "name": "alerts",
      "outputs": [
        {
          "internalType": "address",
          "name": "sender",
          "type": "address"
        },
        {
          "internalType": "string",
          "name": "message",
          "type": "string"
        },
        {
          "internalType": "uint256",
          "name": "timestamp",
          "type": "uint256"
        }
      ],
      "stateMutability": "view",
      "type": "function"
    },
    {
      "inputs": [
        {
          "internalType": "uint256",
          "name": "timestamp",
          "type": "uint256"
        }
      ],
      "name": "getAlert",
      "outputs": [
        {
          "internalType": "address",
          "name": "",
          "type": "address"
        },
        {
          "internalType": "string",
          "name": "",
          "type": "string"
        },
        {
          "internalType": "uint256",
          "name": "",
          "type": "uint256"
        }
      ],
      "stateMutability": "view",
      "type": "function"
    },
    {
      "inputs": [],
      "name": "getAlertCount",
      "outputs": [
        {
          "internalType": "uint256",
          "name": "",
          "type": "uint256"
        }
      ],
      "stateMutability": "view",
      "type": "function"
    },
    {
      "inputs": [],
      "name": "getAllTimestamps",
      "outputs": [
        {
          "internalType": "uint256[]",
          "name": "",
          "type": "uint256[]"
        }
      ],
      "stateMutability": "view",
      "type": "function"
    },
    {
      "inputs": [
        {
          "internalType": "uint256",
          "name": "timestamp",
          "type": "uint256"
        },
        {
          "internalType": "string",
          "name": "message",
          "type": "string"
        }
      ],
      "name": "logAlert",
      "outputs": [],
      "stateMutability": "nonpayable",
      "type": "function"
    },
    {
      "inputs": [],
      "name": "owner",
      "outputs": [
        {
          "internalType": "address",
          "name": "",
          "type": "address"
        }
      ],
      "stateMutability": "view",
      "type": "function"
    },
    {
      "inputs": [
        {
          "internalType": "uint256",
          "name": "",
          "type": "uint256"
        }
      ],
      "name": "timestamps",
      "outputs": [
        {
          "internalType": "uint256",
          "name": "",
          "type": "uint256"
        }
      ],
      "stateMutability": "view",
      "type": "function"
    }
  ],
  "bytecode": "0x608060405234801561001057600080fd5b50336000806101000a81548173ffffffffffffffffffffffffffffffffffffffff021916908373ffffffffffffffffffffffffffffffffffffffff160217905550610fbc806100606000396000f3fe608060405234801561001057600080fd5b506004361061007d5760003560e01c806375725fc61161005b57806375725fc6146100f0578063850818861461010c5780638bc33af31461013e5780638da5cb5b1461016e5761007d565b8063137bf69c14610082578063171d073a146100a057806340411fc8146100d2575b600080fd5b61008a61018c565b6040516100979190610774565b60405180910390f35b6100ba60048036038101906100b591906107d6565b6101e4565b6040516100c9939291906108e3565b60405180910390f35b6100da6102b6565b6040516100e79190610921565b60405180910390f35b61010a60048036038101906101059190610a71565b6102c3565b005b610126600480360381019061012191906107d6565b6104d5565b604051610135939291906108e3565b60405180910390f35b610158600480360381019061015391906107d6565b610664565b6040516101659190610921565b60405180910390f35b610176610688565b6040516101839190610acd565b60405180910390f35b606060028054806020026020016040519081016040528092919081815260200182805480156101da57602002820191906000526020600020905b8154815260200190600101908083116101c6575b5050505050905090565b60016020528060005260406000206000915090508060000160009054906101000a900473ffffffffffffffffffffffffffffffffffffffff169080600101805461022d90610b17565b80601f016020809104026020016040519081016040528092919081815260200182805461025990610b17565b80156102a65780601f1061027b576101008083540402835291602001916102a6565b820191906000526020600020905b81548152906001019060200180831161028957829003601f168201915b5050505050908060020154905083565b6000600280549050905090565b60008054906101000a900473ffffffffffffffffffffffffffffffffffffffff1673ffffffffffffffffffffffffffffffffffffffff163373ffffffffffffffffffffffffffffffffffffffff1614610351576040517f08c379a000000000000000000000000000000000000000000000000000000000815260040161034890610bba565b60405180910390fd5b60006001600084815260200190815260200160002060020154146103aa576040517f08c379a00000000000000000000000000000000000000000000000000000000081526004016103a190610c4c565b60405180910390fd5b60405180606001604052803373ffffffffffffffffffffffffffffffffffffffff168152602001828152602001838152506001600084815260200190815260200160002060008201518160000160006101000a81548173ffffffffffffffffffffffffffffffffffffffff021916908373ffffffffffffffffffffffffffffffffffffffff160217905550602082015181600101908161044a9190610e18565b506040820151816002015590505060028290806001815401808255809150506001900390600052602060002001600090919091909150553373ffffffffffffffffffffffffffffffffffffffff167fbd7e9c15f483b256ff4f405d161a793ec97782523a620ef61df31489df18656282846040516104c9929190610eea565b60405180910390a25050565b60006060600080600160008681526020019081526020016000206002015403610533576040517f08c379a000000000000000000000000000000000000000000000000000000000815260040161052a90610f66565b60405180910390fd5b6000600160008681526020019081526020016000206040518060600160405290816000820160009054906101000a900473ffffffffffffffffffffffffffffffffffffffff1673ffffffffffffffffffffffffffffffffffffffff1673ffffffffffffffffffffffffffffffffffffffff1681526020016001820180546105b990610b17565b80601f01602080910402602001604051908101604052809291908181526020018280546105e590610b17565b80156106325780601f1061060757610100808354040283529160200191610632565b820191906000526020600020905b81548152906001019060200180831161061557829003601f168201915b505050505081526020016002820154815250509050806000015181602001518260400151935093509350509193909250565b6002818154811061067457600080fd5b906000526020600020016000915090505481565b60008054906101000a900473ffffffffffffffffffffffffffffffffffffffff1681565b600081519050919050565b600082825260208201905092915050565b6000819050602082019050919050565b6000819050919050565b6106eb816106d8565b82525050565b60006106fd83836106e2565b60208301905092915050565b6000602082019050919050565b6000610721826106ac565b61072b81856106b7565b9350610736836106c8565b8060005b8381101561076757815161074e88826106f1565b975061075983610709565b92505060018101905061073a565b5085935050505092915050565b6000602082019050818103600083015261078e8184610716565b905092915050565b6000604051905090565b600080fd5b600080fd5b6107b3816106d8565b81146107be57600080fd5b50565b6000813590506107d0816107aa565b92915050565b6000602082840312156107ec576107eb6107a0565b5b60006107fa848285016107c1565b91505092915050565b600073ffffffffffffffffffffffffffffffffffffffff82169050919050565b600061082e82610803565b9050919050565b61083e81610823565b82525050565b600081519050919050565b600082825260208201905092915050565b60005b8381101561087e578082015181840152602081019050610863565b60008484015250505050565b6000601f19601f8301169050919050565b60006108a682610844565b6108b0818561084f565b93506108c0818560208601610860565b6108c98161088a565b840191505092915050565b6108dd816106d8565b82525050565b60006060820190506108f86000830186610835565b818103602083015261090a818561089b565b905061091960408301846108d4565b949350505050565b600060208201905061093660008301846108d4565b92915050565b600080fd5b600080fd5b7f4e487b7100000000000000000000000000000000000000000000000000000000600052604160045260246000fd5b61097e8261088a565b810181811067ffffffffffffffff8211171561099d5761099c610946565b5b80604052505050565b60006109b0610796565b90506109bc8282610975565b919050565b600067ffffffffffffffff8211156109dc576109db610946565b5b6109e58261088a565b9050602081019050919050565b82818337600083830152505050565b6000610a14610a0f846109c1565b6109a6565b905082815260208101848484011115610a3057610a2f610941565b5b610a3b8482856109f2565b509392505050565b600082601f830112610a5857610a5761093c565b5b8135610a68848260208601610a01565b91505092915050565b60008060408385031215610a8857610a876107a0565b5b6000610a96858286016107c1565b925050602083013567ffffffffffffffff811115610ab757610ab66107a5565b5b610ac385828601610a43565b9150509250929050565b6000602082019050610ae26000830184610835565b92915050565b7f4e487b7100000000000000000000000000000000000000000000000000000000600052602260045260246000fd5b60006002820490506001821680610b2f57607f821691505b602082108103610b4257610b41610ae8565b5b50919050565b7f4f6e6c7920636f6e7472616374206f776e65722063616e2063616c6c2074686960008201527f7300000000000000000000000000000000000000000000000000000000000000602082015250565b6000610ba460218361084f565b9150610baf82610b48565b604082019050919050565b60006020820190508181036000830152610bd381610b97565b9050919050565b7f416c657274207769746820746869732074696d657374616d7020616c7265616460008201527f7920657869737473000000000000000000000000000000000000000000000000602082015250565b6000610c3660288361084f565b9150610c4182610bda565b604082019050919050565b60006020820190508181036000830152610c6581610c29565b9050919050565b60008190508160005260206000209050919050565b60006020601f8301049050919050565b600082821b905092915050565b600060088302610cce7fffffffffffffffffffffffffffffffffffffffffffffffffffffffffffffffff82610c91565b610cd88683610c91565b95508019841693508086168417925050509392505050565b6000819050919050565b6000610d15610d10610d0b846106d8565b610cf0565b6106d8565b9050919050565b6000819050919050565b610d2f83610cfa565b610d43610d3b82610d1c565b848454610c9e565b825550505050565b600090565b610d58610d4b565b610d63818484610d26565b505050565b5b81811015610d8757610d7c600082610d50565b600181019050610d69565b5050565b601f821115610dcc57610d9d81610c6c565b610da684610c81565b81016020851015610db5578190505b610dc9610dc185610c81565b830182610d68565b50505b505050565b600082821c905092915050565b6000610def60001984600802610dd1565b1980831691505092915050565b6000610e088383610dde565b9150826002028217905092915050565b610e2182610844565b67ffffffffffffffff811115610e3a57610e39610946565b5b610e448254610b17565b610e4f828285610d8b565b600060209050601f831160018114610e825760008415610e70578287015190505b610e7a8582610dfc565b865550610ee2565b601f198416610e9086610c6c565b60005b82811015610eb857848901518255600182019150602085019450602081019050610e93565b86831015610ed55784890151610ed1601f891682610dde565b8355505b6001600288020188555050505b505050505050565b60006040820190508181036000830152610f04818561089b565b9050610f1360208301846108d4565b9392505050565b7f4e6f20616c65727420617420746869732074696d657374616d70000000000000600082015250565b6000610f50601a8361084f565b9150610f5b82610f1a565b602082019050919050565b60006020820190508181036000830152610f7f81610f43565b905091905056fea2646970667358221220d7d2cdc89261ec46c35942d1abd79cd850013049345ee000bb818477bd786a5664736f6c63430008140033",
  "linkReferences": {},
  "deployedLinkReferences": {}
}